:020000040001F9
:10B0000028340020F5B001000FB1010011B101009A
:10B010000000000000000000000000000000000030
:10B0200000000000000000000000000013B101005B
:10B03000000000000000000015B1010017B1010080
:10B0400019B1010019B1010073E9010019B1010042
:10B0500019B101000000000021DA010019B101005E
:10B0600019B1010019B1010019B10100B1E40100E9
:10B0700019B1010019B1010019B1010019B10100A4
:10B0800019B10100C1E4010019B1010019B10100B9
:10B0900017E5010019B1010021E5010019B1010016
:10B0A00019B1010019B1010000000000000000000A
:10B0B0000000000000000000000000000000000090
:10B0C0000348854600F0B6F8004800478D3402007A
:10B0D00028340020401E00BF00BF00BF00BF00BFDB
:10B0E00000BF00BF00BF00BF00BF00BF00BFF1D165
:10B0F000704700000321094802680A4302600848BB
:10B1000002680A4302600748804707480047FEE795
:10B11000FEE7FEE7FEE7FEE7FEE70000240500404D
:10B1200054050040E5E80100C1B0010030B50B4610
:10B13000014600202022012409E00D46D5409D4211
:10B1400005D31D469540491B254695404019154697
:10B15000521E002DF1DC30BD70B5002425460028BC
:10B1600001DA01244042002901DA01254942FFF7B2
:10B17000DDFFAC4200D04042002C00D0494270BDFF
:10B1800010B5202A04DB0146203A9140002010BD72
:10B19000914020239C1A0346E3401943904010BD80
:10B1A00010B5202A04DB0846203AD040002110BD0B
:10B1B0000B46D340D0402024A21A914008431946A0
:10B1C00010BD03460B439B0703D009E008C9121FBB
:10B1D00008C0042AFAD203E00B780370401C491C13
:10B1E000521EF9D27047D2B201E00270401C491ED3
:10B1F000FBD270470022F6E710B513460A46044614
:10B200001946FFF7F0FF204610BD421C0178401C94
:10B210000029FBD1801A704730B504460020034650
:10B2200000E05B1C934203D2E05CCD5C401BF8D095
:10B2300030BD0000064C0125064E05E0E36807CC52
:10B240002B430C3C98471034B442F7D3FFF73CFF34
:10B25000B8590300D859030030B58C180278401C47
:10B2600013071B0F01D10378401C120906D1027885
:10B27000401C03E005780D70401C491C5B1EF9D191
:10B2800001E00B70491C521EFBD1A142E6D3002005
:10B2900030BD70B548DF044600BF2546002D04D000
:10B2A00000BF284603F092FE00BF00BF70BD38B556
:10B2B0000AF094FC684605F097FE04F0BBFF684670
:10B2C000007806F069FC07F0DDFA03F0AFFD09F045
:10B2D000FBFE06F09BF903F0B3FF00BF032004F070
:10B2E00033FB0446002C04D000BF204603F06EFE62
:10B2F00000BF00BF38BD00000020114908700120C8
:10B300001049088000201049088048808880FF206C
:10B310000E4908700020C0430D4908800D4908807F
:10B32000002009E00021C94382000B4B99508200A4
:10B330000A4B9950411CC8B25028F3DB70470000FB
:10B34000221F00202023002020240020241F002072
:10B35000261F0020A0260020602500202025002098
:10B3600008B5C8200346002211460090FF2001F0D6
:10B37000DBFC01F064FF08BD0FB4F0B589B0149D8B
:10B38000002110A84170681C1290297808A8017744
:10B39000807E089008A8C07E0790012400200690B7
:10B3A00010A8017804A802F01BFB6846067C08A8D8
:10B3B000817EC07E0818002808D008A8817EC07E43
:10B3C0000818C0108019401CC0B203900398C00632
:10B3D000000E0390F006060E1598002813D008A85A
:10B3E000807F00901598C30008A8427E017EC07F30
:10B3F000029001F099FC08A8017E1598C000081879
:10B40000C1B208A8017610AA1178129802F0A8F823
:10B41000074608AA117FC819C82808DA08A8007FBB
:10B42000C821081AC01BC1B208A8417702E0002059
:10B4300008A9487713991298019100900EA80FC897
:10B4400001F0A2FF0019C4B2601C285C0A285AD07F
:10B4500055E0601CC4B2179800281DD0069800283B
:10B460000DD008A90898887608A80799C176007EAB
:10B470008019C1B208A801760020069012E00021D0
:10B4800008A88176C176017E03980818C1B208A881
:10B4900001760120069005E008A8007E8019C1B25F
:10B4A00008A80176285D08AA1077601CC4B2281984
:10B4B000129010AA1178129802F052F8074608AAC2
:10B4C000107FC019C82808DA08A8007FC821081A08
:10B4D000C01BC1B208A8417702E0002008A9487744
:10B4E00013991298019100900EA80FC801F04CFF1B
:10B4F0000019C4B2601C285C0A2800D102E0285D53
:10B500002328A6D000BF1798002815D00698002839
:10B5100008D008A8007E8019C1B208A801760020D2
:10B5200006900FE008A8017E03980818C1B208A889
:10B5300001760120069005E008A8007E8019C1B2BE
:10B5400008A801761698002813D008A8807F0090DC
:10B550001698C30008A8427E017EC07F029001F0C9
:10B56000E3FB08A8017E1698C0000818C1B208A81D
:10B57000017608A8007E09B0F0BC08BC04B01847EA
:10B58000F8B50446002700200F4908700F490870DD
:10B590000F490870002510E0281D205C0002691D7D
:10B5A000615C08430646601900F056F8002E02DD83
:10B5B000B01D451900E005E000BF601907F0CEF8A6
:10B5C0000028E9D100BFF8BDFC220020082300209C
:10B5D0001423002038B503F0B7FA002802D0012068
:10B5E00002F036FE03F0B0FA002819D0112003F063
:10B5F00057F8022003F066F8C820034600221146DF
:10B600000090104601F090FB01F019FEC82003469F
:10B61000002211460090FF2001F086FB01F00FFE92
:10B620007D20C00003F04CF903F08EFA00280CD006
:10B63000C8200346002211460090FF2001F074FB51
:10B6400007F0B0FA0446FFF79BFF01F0F8FD7D20FC
:10B65000C00003F035F938BD70B50546EC78AD1D76
:10B66000012C02D1284600F0DBFB022C03D1002183
:10B67000284600F011FB032C02D1284600F0F8FA0E
:10B68000042C02D1284600F0FFF9052C02D12846EF
:10B6900000F0DCF9062C03D10121284600F0FCFA69
:10B6A000072C02D1284600F089FA082C02D128463E
:10B6B00000F080F9092C02D1284601F053FD0A2C34
:10B6C00002D1284601F0CEFD0B2C02D1284600F015
:10B6D000B1FF0C2C02D1284600F0F4F90D2C02D158
:10B6E000284600F08FFA0E2C03D10121284600F0E5
:10B6F00027F80F2C03D10021284600F021F8102C48
:10B7000002D1284600F024F9112C02D1284600F07D
:10B710002FFC122C03D10121284600F0C7FC132C6A
:10B7200002D1284600F004FC142C03D10021284645
:10B7300000F0BCFC152C02D1284600F099FB70BD2E
:10B74000F3B599B00446217810A80173607880079A
:10B75000800F1290607880101190A0780002E1783C
:10B760000843109020790002617908430F90A07976
:10B770000E90E779217A10A8C174617A0175A07AD8
:10B780000D9020460B300C900D980B3000190B904B
:10B7900010A8017D09A802F023F9002008900820D4
:10B7A00007901098400069490D5ABD420ADBE81B1A
:10B7B0000A2801DA002501E0781E85B210984000C1
:10B7C00062490D520E98401EA8420ADA0E98381AA5
:10B7D000A84204DA0E98381AC0B2089001E0E8B224
:10B7E0000890002110A841738173C1730621017470
:10B7F00004214174002006900590049003909CE081
:10B8000000260899039888427CDB0398A84203D15C
:10B81000002010A9C87402E0FF2010A9C87405997F
:10B820000B9840181790002010A948751A98002806
:10B8300017D00F9840004549085A02900399029882
:10B840000841C007C00F00280AD0022110A8417586
:10B85000017D0C9801F084FE8019C6B20C981890F6
:10B8600000BF10AA117D179801F07AFE8019C6B2A8
:10B8700010AA96741298002802D1032010A94873C8
:10B88000129801280CD1C42E05DA70106421081A10
:10B8900010A9487304E0032110A84173C8218174E2
:10B8A000129802280CD1C42E05DAC420801BC01EB9
:10B8B00010A9487304E0032110A84173C8218174C2
:10B8C000189917980191009013A80FC801F05CFD1A
:10B8D0000799401880B2079008A80079C100119814
:10B8E000C000091810A8007B0818C1B210A8017385
:10B8F0000698401CC0B206900E990698884201DB5B
:10B900001FE0FFE70020049003E00498401CC0B251
:10B9100004900499059841180B98405C232802D0A4
:10B9200004983228F1DB0498401C05990818C0B22D
:10B9300005900398401CC0B203900398B84200DA07
:10B940005EE700BF07981BB0F0BD00002024002078
:10B9500010B588B00446217868460172617841725A
:10B96000A1788172E178C1722179017361794173A3
:10B9700000218173A179C173E1790174217A417445
:10B98000607A0002A17A084340000949085A0590EC
:10B9900020460B300790079906980191009002A865
:10B9A0000FC801F0F1FC0830C0B208B010BD0000B3
:10B9B00020240020F0B589B0044621786846017340
:10B9C00061784173A1788173E178C17321798174C1
:10B9D0000021417460790002A1794018C7B2E17971
:10B9E0006846C174217A0175617A017420460A3073
:10B9F00002900021684641750A2500261DE0605D21
:10BA0000232818D178001049085AB0420AD1029868
:10BA10000790089907980191009003A80FC801F0BA
:10BA2000B3FC0DE0A01C40190290681C205C694624
:10BA30000874701CC6B2681CC5B2605D0A28DED1ED
:10BA400000BF09B0F0BD000020240020F0B585B093
:10BA5000044627786578A0780390E67820790290EC
:10BA6000607901902B463A4600960199029800F0C1
:10BA7000A0FD0398AB193A4600900199029800F096
:10BA800033FD062005B0F0BDF0B585B0044625783D
:10BA90006678A778E0780390207902906079019029
:10BAA000039833462A4600900199029800F081FDE0
:10BAB00033462A4600970199029800F015FD0620AA
:10BAC00005B0F0BDF0B595B00446217808A801771F
:10BAD00061784177A1788177E178C17720790E90FC
:10BAE00060790D90A0790C90E17910A88170207A8E
:10BAF0000B90617A10A8C170A17A0171E07A0002FE
:10BB0000217B08430A90A07B0002E17B0843099057
:10BB10000999C8B202F04AF80746607B002806D0AF
:10BB200009994900244A505C02F040F80746002574
:10BB3000002008900026079025E0B85D0A2820D153
:10BB40000A9840001C49095A0798814212D1089B63
:10BB5000FB180E9A0D990B9802930392049105908D
:10BB600014991398019100900FA80FC8FFF704FCD7
:10BB700005460BE0701C80B208900798401C80B20C
:10BB80000790701C86B2B85D0B28D6D100BF0C9808
:10BB900085420DDA10A8807800900C98401B83B283
:10BBA00008A8427F10A8C0782946069001F0BCF88A
:10BBB000E8B215B0F0BD000020240020F0B58DB033
:10BBC000044621786846017761784177A1788177CA
:10BBD000E178C17725796679A779E17908A881703C
:10BBE000217AC170617A017120460A3002A9E1C14F
:10BBF0000C990B980191009007A80FC8FFF7BCFBA8
:10BC00000DB0F0BDF0B58FB00446217808A80171E1
:10BC100061784171A1788171E178C1712579667986
:10BC2000A779E1798172217AC172617A0173A07A70
:10BC30000002A17A084308900B490898085C079015
:10BC40000A49887801F0B2FF0690079906984018D3
:10BC500002A9E1C10E990D980191009009A80FC8A1
:10BC6000FFF78AFB0FB0F0BDA0A402002024002043
:10BC70007CB50446E07806F0A3FF0546A81CA17831
:10BC8000009101906B782A786178207801F063F850
:10BC9000801D80B27CBD0000F3B593B004462178CE
:10BCA00008A801756178417500218175C175A17879
:10BCB0000176E17881760021417620790002617970
:10BCC00008430C90A0790002E17908430B90207A98
:10BCD0000A90667AA17A08A8C176E17A01772046AF
:10BCE0000C30099008A8017F07A801F079FE002018
:10BCF0000690082005900C98400046490D5AB54220
:10BD00000ADBA81B0A2801DA002501E0701E85B2B3
:10BD10000C9840003F490D520A98401EA8420ADA8A
:10BD20000A98301AA84204DA0A98301AC0B206906B
:10BD300001E0E8B2069000200490039002900027F2
:10BD400061E00698874245DBAF4203D1002008A995
:10BD5000C87602E0FF2008A9C87603990998401820
:10BD60001190002008A948771498002814D00B9946
:10BD70004900284A505A01463941C907C90F0029CC
:10BD800009D0022108AA517723A206CA0192009184
:10BD90006946129100BF00BF12991198019100905D
:10BDA0000DA80FC801F0F0FA0599401880B205906F
:10BDB00008A8017D6846007FC0000818C1B208A825
:10BDC00001750498401CC0B204900A9904988842F6
:10BDD00000DB1AE00020029003E00298401CC0B291
:10BDE00002900299039841180998405C232802D0D8
:10BDF00002983228F1DB0298401C03990818C0B25F
:10BE00000390781CC7B2B7429BDB00BF059815B002
:10BE1000F0BD00002024002020286F6E6F6E2923C3
:10BE200010B588B004462178684601726178417285
:10BE3000A1788172E178C1722179017361794173CE
:10BE400000218173A179C173E17901742046083022
:10BE50000690002168464174079906980191009068
:10BE600002A80FC801F090FA0830C0B208B010BDA7
:10BE7000F0B59BB0054628781A9068781990A87894
:10BE80001890E87817902F7968791690A87915900E
:10BE9000E8791490287A0002697A401880B21390E9
:10BEA000A87A12900B26002406E0A85D05A9085583
:10BEB000601CC4B2701CC6B2A85D002801D0322C30
:10BEC000F3DB002005A90855139840001749085ACC
:10BED000012212998A401040002816D0202005A97E
:10BEE0000855601CC4B228200855601CC4B24F20FD
:10BEF0000855601CC4B24E200855601CC4B22920ED
:10BF00000855601CC4B200200855159A149916985B
:10BF100001970392049102901798009005A8189B2E
:10BF2000199A1A9900F022F91BB0F0BD20240020C4
:10BF3000F0B58BB0044620780A9060780990A0781C
:10BF40000890E078079025796679A779E0790690DE
:10BF5000069801A9E0C10490079800902046083097
:10BF6000089B099A0A9900F08CF90BB0F0BD00000B
:10BF7000F0B595B004462078149060781390A078BE
:10BF80001290E07811902079109060790F90A0794C
:10BF90000E90E0790D90207A0002617A0843054600
:10BFA000A07A0002E17A08430646207B0002617B0A
:10BFB00008430C900C99C8B201F0F8FD0746A07B2D
:10BFC000002806D00C994900364A505C01F0EEFD7D
:10BFD000074600200B900A90099008900790700087
:10BFE0003049085AC01930490968884203D00020F6
:10BFF00069002C4A505270002A49085AC0192A492F
:10C0000008602CE00898385C002824D1700025498D
:10C01000095A0798814216D10DA80BC8109A0293AD
:10C020000192039104901198009068001D49095AEB
:10C0300009980818C0190690129B139A149900F0D9
:10C0400020F90B900FE00898401C80B209900798E7
:10C05000401C80B207900898401C80B20890089855
:10C06000385C0A28CED100BF0B98002809DD680093
:10C070000C49095A0B98081880B26900094A5052B5
:10C080000DE000206900074A5052A07B002806D02E
:10C0900070001146085A401C80B27100505215B011
:10C0A000F0BD0000202400201C1F0020F8B505462C
:10C0B0000E462878000269784018C4B2002E0CD0D1
:10C0C000287800026978401840001A49085CA9786D
:10C0D00009024018E9784018C4B2002C29DD012C6F
:10C0E00000D1154F022C00D1144F032C00D1144F56
:10C0F000042C00D1134F052C00D1134F062C00D176
:10C10000124F072C00D1124F082C00D1114F092CCF
:10C1100000D1114F0A2C00D1104F102C00D1104F1C
:10C12000112C00D10F4F122C00D10F4F3846FFF7C2
:10C1300027FAF8BD2024002056D4020079D402004A
:10C140009CD40200BDD40200E2D4020002D5020059
:10C1500023D502004BD5020075D5020099D5020007
:10C16000C7D50200F9D502001CD60200FFB58BB07E
:10C17000169D159C69460D98488368460C99018365
:10C1800000218183C18341841499818404840B98A4
:10C190000A9008A818998171817904A801F020FCFF
:10C1A0006846007CC006000E0390E01000280FD007
:10C1B0006846808C00906846428B018B2346179816
:10C1C00000F0B2FD6846008B001981B26846018319
:10C1D0002046E117490F0918C910C900611A8910D2
:10C1E000002907D0E907C90F002903D005216846B7
:10C1F0008183C1830020029061001498401A86B2A6
:10C2000008A881790B9800F0D5FF029006202840FD
:10C21000002801D16846048406202840022805D160
:10C220000298301A401000196946088406202840F8
:10C23000042804D1A1190298081A6946088417989D
:10C2400001900A98009006A80FC800F0B8FD684653
:10C25000018B0398081881B268460183018B0E9800
:10C26000401A4005070E002F09D06846808CFB005D
:10C2700000906846428B018B179800F055FD0FB077
:10C28000F0BDFFB5A3B007462D9C10A92598C88026
:10C2900010A824998180002101814181C1812C99BC
:10C2A0000182848116A8159010A83099817400200D
:10C2B00010900F9001200E900D9010A8817C0BA87B
:10C2C00001F08EFB08A8007BC006000E0A90E0106B
:10C2D00000280FD010A8008A009010A8C28881887A
:10C2E00023462F9800F020FD10A88088001981B205
:10C2F00010A881802046E117490F0918C910C9000C
:10C30000611A891000290AD02E99C907C90F00297E
:10C3100005D000200D90052110A801814181002049
:10C3200009900890002607900690002561002C983F
:10C33000401A80B2059010A881880A9809180D98B3
:10C34000C000081880B2049000200390ACE006E022
:10C35000785D16A98855681C85B2701C86B2785D18
:10C36000202807D0785D002804D0785D0D2801D002
:10C37000322EEDDB002016A9885510A8817C16A866
:10C3800000F018FF0990785D00280CD105990998F4
:10C39000884208DA099808900696059809900120C5
:10C3A00003900020079005990998884202DA785D89
:10C3B0000D286ED1785D0D2805D0002116AA0698AB
:10C3C0001154079D03E0681C85B209980890062166
:10C3D0002E980840002801D110A8848106212E98AB
:10C3E0000840022806D108990598401A4010001903
:10C3F00010A9888106212E980840042805D10598A7
:10C4000021180898081A10A988812F98019015986A
:10C41000009011A80FC800F0D2FC2E98C007C00FE2
:10C42000002828D00D98002812D0052110A80181DD
:10C43000418181880A98081881B210A8818081887A
:10C440000A980818083080B2049000200D901EE071
:10C45000002110A80181418181880A9808300818BC
:10C4600081B210A8818081880A98081880B204904F
:10C4700001200D900BE010A881880A98081881B25D
:10C4800010A8818081880A98081880B2049000263C
:10C490000AE009980890202016A98855701C86B2D9
:10C4A0000696681C85B2079526990498884203DC95
:10C4B0000398002800D14AE710A881882698401ADE
:10C4C0004005000E0290029800280AD010A8008AA9
:10C4D00000900298C30010A8C28881882F9800F0AD
:10C4E00023FC079827B0F0BDFFB587B00E46144671
:10C4F00010996018C117490F0918C910C900411ACD
:10C50000C9B205912046E117490F0918C910C900A1
:10C51000611AC9B204910498401CFF210141C8432B
:10C52000C0B20390FF2105988140C843C0B2029079
:10C530000798002807D00398C043C0B20390029820
:10C54000C043C0B2029033462046109A0A9900F0C8
:10C55000A8FD0546002D2ADD31462846FEF7FCFDE4
:10C56000801E87B2242002F09BF8002006900190E4
:10C5700019E0E81E0699884200DA17E001210398C5
:10C5800002F08AF93946079802F072F901210298FF
:10C5900002F082F9B91C0698401880B20690019802
:10C5A000401CC0B201900198B042E2DB00BF0BB06A
:10C5B000F0BDFFB581B00D4614460820411BFF2099
:10C5C0008840C0B200902046E117490F0918C910F1
:10C5D000C900611AA9420ADAE117490F0918C910FE
:10C5E000C900621A521C009911410F460BE0204607
:10C5F000E117490F0918C910C900611A4A1B521CDA
:10C60000009911410F460198002801D1F843C7B2A3
:10C61000082220460A9B049900F043FD0646002E9E
:10C6200006DD242002F03CF83146384602F034F9A9
:10C6300005B0F0BDF8B50446207801281AD1A178DC
:10C640000902E278891888B26178002901D1FE4A8E
:10C6500010706178012904D1FB4909780918FA4A58
:10C6600011706178022904D1F7490978091AF64A4C
:10C67000117000BF207802287ED1E5782D0226793E
:10C68000AD19A8B265792D02A679AD19AAB2E579DE
:10C690002D02267AAD19ABB20021A578012D05D166
:10C6A0005500EA4E765D1D46B540A9B2A578022D2B
:10C6B00005D15500E54E765D1D4635412946A578E4
:10C6C000032D04D15500E14E755B9D40A9B2A578BC
:10C6D000042D04D15500DD4E755B1D412946A5781A
:10C6E000052D04D15500D94E755B1D432946A5780B
:10C6F000062D04D15500D54E755B1D402946A57801
:10C70000072D04D15500D14E755B5D402946A578B3
:10C71000082D02D15500CD4E715BA578092D00D1B1
:10C7200019466578012D06D14500C84E755B0D414F
:10C730004600C64FBD536578022D06D14500C34E55
:10C74000755B8D404600C14FBD536578032D07D101
:10C750004500BE4E755BCE4335414600BB4FBD53D1
:10C760006578042D07D14500B84E755BCE43B540C2
:10C770004600B64FBD5300E044E06578052D06D174
:10C780004500B24E755B0D434600B04FBD53657812
:10C79000062D06D14500AD4E755B0D404600AB4FF2
:10C7A000BD536578072D06D14500A84E755B4D40F9
:10C7B0004600A64FBD536578082D07D14500A34E0E
:10C7C000755BCE4335434600A04FBD536578092DB8
:10C7D00006D145009D4E755B8D4346009B4FBD5372
:10C7E00065780A2D07D14500984E755BCE4375409C
:10C7F0004600964FBD5365780B2D02D14500934EF0
:10C80000715300BF207803287DD1E07800022179A0
:10C81000401885B260790002A179401886B2E079AB
:10C820000002217A401887B26078012802D168009E
:10C8300086490F526078022806D168008349085A59
:10C84000C0196900814A50526078032806D16800F7
:10C850007E49085AC01B69007C4A505260780428FF
:10C8600006D168007949085A78436900774A5052DE
:10C870006078052808D16900744A505A3946FEF795
:10C880006BFC6900714A50526078062809D1690032
:10C890006E4A505A3946FEF75FFC88B269006B4A0F
:10C8A00050526078072806D170006849085AC019AC
:10C8B0006900664A50526078082806D170006349C2
:10C8C000085AC01B6900614A50526078092806D195
:10C8D00070005E49085A784369005C4A505260789B
:10C8E0000A2808D17100594A505A3946FEF734FCDB
:10C8F0006900564A505260780B280BD17100534A98
:10C90000505A394600E0ACE0FEF726FC88B26900D8
:10C910004E4A505260780C2806D170004B49085A94
:10C92000381A6900494A505260780D2808D17000C1
:10C93000464A115A3846FEF70FFC6900434A5052E6
:10C9400060780E2809D17000404A115A3846FEF727
:10C9500003FC88B269003D4A505260780F2808D124
:10C9600068003A49085A7100384A515A401869001B
:10C9700050526078102808D168003449085A710074
:10C98000324A515A401A690050526078112808D131
:10C9900068002E49085A71002C4A515A48436900D0
:10C9A00050526078122809D17200284B995A6A00B7
:10C9B000985AFEF7D1FB6900244A50526078132838
:10C9C0000AD17200214B995A6A00985AFEF7C4FBAB
:10C9D00088B269001D4A50526078142808D170004E
:10C9E0001A49085A7900194A515A40186900505298
:10C9F0006078152808D170001449085A7900134A44
:10CA0000515A401A690050526078162808D17000B7
:10CA10000E49085A79000D4A515A4843690050524C
:10CA20006078172809D17A00084B995A7200985AF1
:10CA3000FEF792FB6900054A5052607818280FD122
:10CA40007A00024B995A03E0221F00202024002084
:10CA50007200985AFEF780FB88B26900A94A5052CA
:10CA600000BF207804287DD1A0780002E17840182A
:10CA700085B2207900026179401886B2A779607882
:10CA8000012814D168009F49085A80009E4908581F
:10CA9000401C00280BD19D484068C0080021C943B4
:10CAA000081A6900974A515A8900974A505060788D
:10CAB000022806D1C01E6900924A515A8900924A42
:10CAC00050506078032827D168008E49085A8000AA
:10CAD0008D490858401C002803D17100894A5052E2
:10CAE0001AE068008749085A800087490858884931
:10CAF000884204D900207100824A50520CE069003B
:10CB0000804A515A8900804A5058E1210901FEF7B4
:10CB10000DFB71007B4A50526078042804D16900F3
:10CB2000784A505A08F02EFA6078052802D1FF2082
:10CB3000784908706078062802D10020754908708D
:10CB40006078072832D168006E49085A8100401881
:10CB5000C019800070490858401C002805D1710098
:10CB6000684A00E041E0505220E068006549085AF8
:10CB700081004018C01980006749085864498842FC
:10CB800004D9002071005F4A50520FE069005D4AED
:10CB9000515A8A008918C91989005F4A5058E12101
:10CBA0000901FEF7C3FA7100564A505260784D28C9
:10CBB0001AD1002001F0EFFE00BF00BF00BF00BF90
:10CBC00000BFBFF34F8F00BF00BF00BF53485449A1
:10CBD000C86000BF00BF00BFBFF34F8F00BF00BFE2
:10CBE00000BF00BF00BFFDE700BF207805283CD193
:10CBF000A5782D02E678AD19A8B225792D026679BF
:10CC0000AD19A9B2A5792D02E679AD19AAB2257A96
:10CC10002D02667AAD19ABB26578012D06D14500BB
:10CC2000384E755B8D4201D1550073536578022DE6
:10CC300006D14500334E755B8D4201D055007353CC
:10CC40006578032D06D145002E4E755B8D4201DDC2
:10CC5000550073536578042D06D14500294E755B48
:10CC60008D4201DA5500735300BF2078062847D162
:10CC7000A0780002E178401885B22079000261793D
:10CC8000401880B20090A0790002E179401886B285
:10CC9000207A0002617A401887B26078012808D1B2
:10CCA000204800880099FEF757FA88B26900154AB3
:10CCB00050526078022808D11A4800880099FEF77F
:10CCC0004BFA88196A000F4988526078032809D105
:10CCD000144800880099FEF73FFA714388B2690052
:10CCE000084A50526078042809D10E4800880099FB
:10CCF000FEF732FA794388196900024A505200BFA0
:10CD0000F8BD0000202400202025002000B50040B0
:10CD1000F0F10F0E231F0020602500200400FA050B
:10CD200000ED00E0201F0020FFB581B00C46154645
:10CD30001E463246294620460A9B00F0B2F90746B5
:10CD4000002F06DD242001F0ABFC3946019801F0EC
:10CD50008FFD05B0F0BDFFB583B014461D460D9E96
:10CD60002B4622460499039800F09BF90290029802
:10CD7000002821DD242001F093FC0020019017E021
:10CD8000002000900DE03778761C0C98002801D028
:10CD9000F843C7B2384601F095FC0098401CC0B279
:10CDA00000900098A842EEDB0198401CC0B20190B0
:10CDB000E11001988142E3DC029807B0F0BD0FB4A6
:10CDC000F0B597B00020109018A9887F00F0F6FD0C
:10CDD000079018A8817F05A800F002FE10A8408ED9
:10CDE000C821081A401E80B2039010A8818EC08E00
:10CDF000081800280BDD10A8818EC08E0818401E70
:10CE0000C110079800780818401CC7B201E00798C5
:10CE10000778F800049010A8408F002809D010A8C7
:10CE2000418E008E0290039B049A00F03AF9064668
:10CE300008E010A8838F418E008E0290049A00F0C3
:10CE400030F90646002E7EDD242001F029FC002466
:10CE5000002513E0002001900BE0B44200DD0BE060
:10CE6000219801F02FFC601C84B20198401CC0B2D4
:10CE700001900198B842F0DB00BF6D1C10A8008F34
:10CE8000A842E7D800200290BEE01098401CC0B233
:10CE9000109020990298085C20384006000E0D90F2
:10CEA0006846C18A0D9809180798405C01026846D7
:10CEB000C28A0D981018401C079A105C081880B29E
:10CEC0000A9000200F906846C18A0D980818801CAF
:10CED0000799085C02026846C18A0D980818C01CB0
:10CEE0000799085C11180A98081A80B20B900B98E1
:10CEF000642801DD64200B9000200E90002562E084
:10CF00000020019000210891099112E0089A130E67
:10CF100009990802184312020A994B1901995B18E2
:10CF20000799C95C0A43089209900198401CC0B255
:10CF300001906846017D01988142E7DC6846007DEA
:10CF4000381AC20000E08DE00899099814911390F6
:10CF500008461399FEF714F90991089010A8828EDB
:10CF6000089909981291119008461199FEF718F93D
:10CF700009910890F806000E01901DE0019808380C
:10CF8000C0B20190019A0899099816911590084627
:10CF90001599FEF705F9C0B20C902198002803D02E
:10CFA0000C98C043C0B20C90B44200DD07E00C986E
:10CFB00001F088FB601C84B201980028DEDC00BF11
:10CFC0006846007D45190B98854299D3002513E0EA
:10CFD000002001900BE0B44200DD0BE0219801F04D
:10CFE00071FB601C84B20198401CC0B20190019892
:10CFF000B842F0DB00BF6D1C6846407DA842E7D810
:10D000000298401CC0B2029020990298085C002847
:10D0100000D03AE710A8408F00281AD0002513E06E
:10D02000002001900BE0B44200DD0BE0219801F0FC
:10D0300049FB601C84B20198401CC0B20190019869
:10D04000B842F0DB00BF6D1C10A8408FA842E7D8A3
:10D0500007E004E0219801F035FB601C84B2B44283
:10D06000F8DB00BF109817B0F0BC08BC04B018473C
:10D0700070B505460C4601F067FD002810D04E2023
:10D0800001F00EFB6905080E01F01CFB4F2001F0BA
:10D0900007FBE0B201F016FB2104080E01F012FBC1
:10D0A00070BDFEB504460F4615461E46002C05DB36
:10D0B000002D03DB002F01DB002E01DA0020FEBD76
:10D0C000F820044005406019C82802DB00200290C7
:10D0D00004E0C820001B401B80B20290B819C82889
:10D0E00002DBC720019003E0B819401E80B2019016
:10D0F000C820001B401E84B239462046019B029A7C
:10D1000000F00AF839462046FFF7B2FFE8107043F6
:10D1100080B200900098D2E7F8B506460C46174654
:10D120001D4601F011FD00281BD0442001F0B8FA83
:10D130007105080E01F0C6FA7905080E01F0C2FA71
:10D14000452001F0ADFAE0B201F0BCFA2104080E6E
:10D1500001F0B8FAE8B201F0B5FA2904080E01F0BE
:10D16000B1FAF8BD3EB50446617868460170A07812
:10D170000002E178401881B26846418020790002BF
:10D180006179401881B268468180A1798171E07926
:10D190000002217A401881B268460181607A00025B
:10D1A000A17A401881B268464181684607C800F0FC
:10D1B00033FD3EBDF3B585B00546069800F0FEFB95
:10D1C0000646069902A800F00BFC0020019030E012
:10D1D000287820384006040E684640890019305CE3
:10D1E0000102684640890019401C305C081880B272
:10D1F0000490684640890019801C305C0102684632
:10D2000040890019C01C305C09180498081A87B2BC
:10D21000642F00DD64276846017A3846FDF79CFFDD
:10D2200087B26846407AC1190198081880B2019007
:10D230006D1C28780028CBD1019807B0F0BD10B53F
:10D2400001F082FC00280BD0222001F029FAC42032
:10D2500001F038FA202001F023FAFF2001F020FA33
:10D2600010BD00003EB50446207801281CD160782E
:10D2700042490870A0780002E17840183F49488090
:10D2800020790002617940183C498880A079887132
:10D29000E0790002217A401838490881607A00025A
:10D2A000A17A401835494881207802281CD160783D
:10D2B00033490870A0780002E1784018304948806E
:10D2C00020790002617940182D498880A079887101
:10D2D000E0790002217A401829490881607A000229
:10D2E000A17A401826494881207803281CD160780B
:10D2F00024490870A0780002E1784018214948804C
:10D3000020790002617940181E498880A0798871CF
:10D31000E0790002217A40181A490881607A0002F7
:10D32000A17A4018174948812078042825D16178CE
:10D3300068460170A0780002E178401881B2684622
:10D340004180207900026179401881B2684681806D
:10D35000A1798171E0790002217A401881B2684692
:10D360000181607A0002A17A401881B26846418149
:10D37000684607C800F050FC00BF3EBDFC220020FC
:10D3800008230020142300200FB4F0B589B010A9A1
:10D39000087800F013FB0890002708A8407EC821F9
:10D3A000081A80B2059008A8817EC07E081800285F
:10D3B0000BDD08A8817EC07E0818401EC1100898A9
:10D3C00000780818401CC5B201E008980578E8000C
:10D3D000069008A8407F002809D008A8417E007E5A
:10D3E0000490059B069AFFF75CFE044608E008A837
:10D3F000837F417E007E0490069AFFF752FE04462A
:10D40000002C79DD242001F04BF900200790002644
:10D4100019E00020049011E06846808BA04200DDF6
:10D420000FE008A9C87F01F04DF96846808B401CC9
:10D4300081B207910498401CC0B204900498A8429D
:10D44000EADB00BF761C08A8007FB042E1D810A834
:10D450004078C007C00F00280ED008A8807E029533
:10D460000094019008A8C27F139807AB0490089914
:10D4700000F0C7F9C01987B210A84078042108400D
:10D4800000280FD008A8807E02950094019008A87B
:10D49000C27F119807AB0490089900F0B2F8C01948
:10D4A00087B20EE008A8807E02950094019008A83B
:10D4B000C27F129807AB0490089900F0A2F9C01936
:10D4C00087B210A840780221084000280ED008A892
:10D4D000807E02950094019008A8C27F139807AB44
:10D4E0000490089900F08DF9C01987B208A8407F10
:10D4F000002821D000261AE02CE00020049011E042
:10D500006846808BA04200DD0FE008A9C87F01F0CB
:10D51000D9F86846808B401C81B207910498401C62
:10D52000C0B204900498A842EADB00BF761C08A8A9
:10D53000407FB042E1D80DE008E008A9C87F01F0C3
:10D54000C1F86846808B401C81B207916846808B89
:10D55000A042F2DBF8B209B0F0BC08BC04B0184736
:10D56000F3B585B00446069800F028FA06460699F9
:10D5700002A800F035FA0020019030E02078203831
:10D580004006050E684640894019305C0102684635
:10D5900040894019401C305C081880B204906846ED
:10D5A00040894019801C305C01026846408940195E
:10D5B000C01C305C09180498081A87B2642F00DD7B
:10D5C00064276846017A3846FDF7C6FD87B268468B
:10D5D000407AC11901980818C0B20190641C2078E3
:10D5E000232801D0012000E000202178002901D06B
:10D5F000012100E0002108400028BFD1019807B0B8
:10D60000F0BDFFB595B00C4600200E9020790002C9
:10D610006179401880B20690A0790002E179401843
:10D6200080B205906078049023206946887315982D
:10D63000002813D009270CE00A211598FDF776FD84
:10D64000303101A8C1550A211598FDF76FFD1590DD
:10D650007F1E15980028EFD17F1C03E0302069461B
:10D6600048730927B8E00E98401CC0B20E9001A87C
:10D67000C05D20384006000E0A9006990A980818E6
:10D68000205C02020A980818401C205C101880B226
:10D69000079000200C9006990A980818801C205CBE
:10D6A00002020A980818C01C205C11180798081A72
:10D6B00080B208900898642801DD6420089000205A
:10D6C0000B900D905EE00020009000252E4610E0AB
:10D6D0002A0E300210432A020D9B0799CB1800999D
:10D6E0005918615C0A43154606460098401CC0B2B2
:10D6F0000090217800988142EADC21782098401A35
:10D70000C2002846314611961295FDF739FD0546AF
:10D710000E461F9A284631460F961095FDF740FD9C
:10D7200005460E462098C006000E009022E00098A4
:10D730000838C0B20090009A2846314613961495D6
:10D74000FDF72EFDC0B209901798002803D0099864
:10D75000C043C0B20990189801881E98814200DD2C
:10D760000BE0099800F0AEFF18980088401C81B2C9
:10D770001898018000980028D9DC00BF21780D9806
:10D7800008180D9008990D9888429CD300200D90A0
:10D790001DE00020009012E0189801881E98814238
:10D7A00000DD10E0179800F08DFF18980088401CED
:10D7B00081B2189801800098401CC0B20090209956
:10D7C00000988842E8DB00BF0D98401C0D9004993A
:10D7D0000D988842DDD37F1C01A8C05D232801D0AD
:10D7E000012000E0002001A9C95D002901D001212C
:10D7F00000E000210840002800D034E70E9819B05E
:10D80000F0BDFFB593B00C461F4600200C90207968
:10D8100000026179401880B20490A0790002E17999
:10D82000401880B2039060780290B2E00C98401CDF
:10D83000C0B20C901398007820384006000E089073
:10D84000049908980818205C020208980818401CDF
:10D85000205C101880B2059000200A900499089866
:10D860000818801C205C020208980818C01C205C64
:10D8700011180598081A80B206900698642801DDF0
:10D8800064200690002009900B905AE0002001903F
:10D8900000252E4610E02A0E300210432A020B9B70
:10D8A0000599CB1801995918615C0A43154606463B
:10D8B0000198401CC0B20190217801988142EADCB5
:10D8C00021781E98401AC200284631460F961095BE
:10D8D000FDF756FC05460E461D9A284631460D9624
:10D8E0000E95FDF75DFC05460E461E98C006000E1F
:10D8F00001901EE001980838C0B20190019A2846B4
:10D90000314611961295FDF74BFCC0B20790159861
:10D91000002803D00798C043C0B2079039881C98EC
:10D92000814200DD08E0079800F0CCFE3888401CFA
:10D93000388001980028DDDC00BF21780B9808189A
:10D940000B9006990B988842A0D300200B9019E009
:10D95000002001900EE039881C98814200DD0DE026
:10D96000159800F0AFFE3888401C38800198401CA4
:10D97000C0B201901E9901988842ECDB00BF0B9861
:10D98000401C0B9002990B988842E1D31398401CDD
:10D99000139013980078232801D0012000E0002084
:10D9A00013990978002901D0012100E000210840E5
:10D9B000002800D03AE70C9817B0F0BD01460129C5
:10D9C00000D10448022900D10348032900D10348AB
:10D9D00070470000446102004C830200489A020034
:10D9E0007CB506460D462846FFF7E8FF0446217839
:10D9F00068460170617841702079000261794018B1
:10DA000081B268464180A0790002E179401881B274
:10DA100068468180062269463046FDF7D2FB7CBD10
:10DA2000F0B587B0002600200690FF200130059059
:10DA30000125002416E0059806F07EFB00280BD097
:10DA400000BF564840682840002805D0059806F0D9
:10DA50006BFB3046284306466D000598001D80B2DA
:10DA60000590641C042CE6D3FF207D3006F064FB97
:10DA700000280AD0FF207D3006F056FB0120C007A9
:10DA8000064300BF4648006906903007000F002893
:10DA90002AD00125002425E02846304000281FD048
:10DAA00000BF4048512109014018A10040581F21E2
:10DAB00009020840000A049000BF3A4851210901B8
:10DAC0004018A1004058032109040840000C0390AD
:10DAD000204603F0C7FA074603990498B84700BFE9
:10DAE0006D00641C042CD7D3F00FC007002852D05F
:10DAF00000244EE02C480057401C002848D02A48FB
:10DB0000005D0490C021049888430746384603F01E
:10DB1000EDFA029003F0A6FA03900398002836D09D
:10DB2000C02104980840801102900120B8400546A9
:10DB300000BF05200007072109024018B90040581E
:10DB4000032109040840000C019006982840002891
:10DB500002D00198022806D006982840002815D146
:10DB60000198032812D1029803280BD101980228AA
:10DB700001D1032000E0022000903846009906F011
:10DB800062FA00BF3846039A0299904700BF00BF6F
:10DB9000641C042CAED307B0F0BD0000006300404D
:10DBA00000050050006000400C2B002001460029B9
:10DBB00000D11148012900D11048022900D1104894
:10DBC000032900D10F48042900D10F48052900D1AD
:10DBD0000B48062900D10A48072900D10B4808291B
:10DBE00000D10748092900D105480A2900D1084871
:10DBF0000B2900D107487047A2A40200D4BF02003D
:10DC000037CE0200E6AC02004BB602005BC9020050
:10DC10007BD102001BD00200F7B5684680798021D5
:10DC20000840002804D083480078401E81490870CD
:10DC3000684680794406640E012C09D16846418803
:10DC4000808840007C4A105A081881B2684641809A
:10DC5000022C1CD16A4652895200774B985A6A4668
:10DC600092885200995A01228A400240002A03D029
:10DC70006A461389538009E06A46538892885200A5
:10DC80006D4DAA5A9A1893B26A46538000BF032C6E
:10DC900029D16D462D8928126D462D89E9B26D4630
:10DCA000AD886D00644E735B0022451CE8B217E03E
:10DCB0004D1E854200DA0020012585401D40002DC3
:10DCC0000AD06D466D882D18AEB26D466E806D8996
:10DCD0006D00594E70530A46551CEAB2451CE8B215
:10DCE0008A42E5DB00BF042C0CD1684680884000E6
:10DCF0005149095A684600890143684680884000B6
:10DD00004D4A1152052C0CD16846808840004A4982
:10DD1000095A684600898143684680884000464A1F
:10DD2000115244480078401C4249087068464088B7
:10DD300009784900414A5052062C1BD16846808818
:10DD400040003D49085A401C81B268468088400026
:10DD5000394A11526846808840001146095A68467F
:10DD60000089814206D168464089324909784900D4
:10DD7000324A5052072C0CD16846808840002E4908
:10DD8000095A68460089814203D168464089294979
:10DD90000870082C0CD16846808840002649095A32
:10DDA00068460089814203D068464089214908704D
:10DDB000092C0FD16846808840001F49095A6846DF
:10DDC0000089814206D1684640891A49097849008C
:10DDD0001A4A50520A2C0FD16846808840001649D2
:10DDE000095A68460089814206D06846408911492F
:10DDF00009784900114A50520B2C0BD16846008912
:10DE000040000D49085A401C81B268460089400014
:10DE1000094A11520C2C06D16846408805490978F8
:10DE2000081A0449087004F0BDFE0546FDF7A8FB7A
:10DE3000FEBD0000221F00202024002020230020FF
:10DE4000FEB505460E4617462802401B80190A21DA
:10DE500048430090B6210098FDF768F90A217943FC
:10DE6000441A0A48844202DAE12000012418E12021
:10DE7000C000844201DB4000241A21B26846C18000
:10DE80000021C94301710198FEBD0000F8F8FFFFB1
:10DE9000FEB504460D462C4840682C4909884018B8
:10DEA0002A490880002D10D0FDF75AFAC8200346F1
:10DEB000002211460090FF20FEF736FF04F072FEAC
:10DEC0000646FDF75DFBFFF7BAF9042C08D10C22DA
:10DED0001F496846FDF775F9684607C800F042F823
:10DEE000022C08D10C221B496846FDF76AF96846E6
:10DEF00007C800F037F8012C08D10C2216496846F3
:10DF0000FDF75FF9684607C800F02CF8052C1AD118
:10DF100012480078401C11490870F920097849001E
:10DF20000F4A5052FDF71CFAC82003460022114642
:10DF30000090FF20FEF7F8FE04F034FE0646FDF7E1
:10DF40001FFBFFF77CF9FEBD00B50040201F00203D
:10DF5000FC2200200823002014230020221F002080
:10DF60002023002017B581B068460079012830D100
:10DF700004F018FE04466846807A00280BD16846F3
:10DF8000008940002A49085A401C81B2684600892D
:10DF90004000274A11526846807A01280BD1684612
:10DFA000008940002249085A401E81B26846008913
:10DFB00040001F4A1152C82003460022114600901B
:10DFC000FF20FEF7B1FE2046FDF7DAFAFFF737F93A
:10DFD00000BF6846007903280FD1FDF7C1F9C820BA
:10DFE0000346002211460090FF20FEF79DFE01A887
:10DFF00007C8FFF711FEFFF722F9684600790428E9
:10E0000015D10C480078401E0A490870FDF7A8F9A0
:10E01000C8200346002211460090FF20FEF784FE30
:10E0200004F0C0FD0446FDF7ABFAFFF708F91FBD89
:10E0300020240020221F002010B505F0FFFB02E085
:10E0400005F032FC044605F019FB0028F8D1002C3D
:10E050003FD0214908702149087021482149088092
:10E0600006F0FEFA00F040F801212046FFF710FF0D
:10E07000002426E01B480088401E1A490880002C16
:10E0800007D000212046FFF703FF154815490880F7
:10E09000002405F009FC002803D0002004F0F4FE61
:10E0A00004460A2000F00CFC0C480078002808D038
:10E0B0000C480088FF21F531884202DD08460949F5
:10E0C0000880084800880028D4D100F043FA06F000
:10E0D000B3FA05F0FBFA10BD051F0020231F002036
:10E0E00010270000021F002070B592B000244422C7
:10E0F000214601A800F088FCFF340134684600790D
:10E10000802866DA002504201BE001A9095C0906C5
:10E1100001AB421C9A5C12041143821C9A5C1202ED
:10E120001143C21C9A5C1143AA002C4B9950A900C0
:10E130001A465158AA002A4B9950691CCDB2011DAC
:10E14000C8B24428E1DB6846007926490870264EAB
:10E15000FF2201322146304600F056FCFF340134E4
:10E16000224EFF2201322146304600F04DFCFF34A2
:10E170000134FF22013221461D4800F045FCFF34E6
:10E180000134402221461B4800F03EFC154800782F
:10E1900040001549085A1849884217D0114800789C
:10E1A000164908700F48007840000F49085A144972
:10E1B0000880002007E041000C4A515A4200114BF0
:10E1C0009952411CC8B28028F5DB01E0FDF794F8B4
:10E1D00001E0FDF791F812B070BD0000202500208D
:10E1E000A0270020221F0020202300202024002020
:10E1F0006025002060260020FFFF0000241F002073
:10E20000261F0020A026002008B5012000F020F8DD
:10E2100000F09AFC002819D0112000F041FA0220E9
:10E2200000F050FAC8200346002211460090104624
:10E23000FEF77AFDFFF703F8C820034600221146D7
:10E240000090FF20FEF770FDFEF7F9FF08BD00000B
:10E2500070B5044600F086F800F046F9012000F0A1
:10E260001FFAC72000F02EFA002000F02BFA002041
:10E2700000F028FA0C2000F013FAD72000F022FA60
:10E28000D62000F01FFA9D2000F01CFA2C2000F090
:10E2900007FA7C2000F016FA3A2000F001FA1A2062
:10E2A00000F010FA3B2000F0FBF9082000F00AFA19
:10E2B000112000F0F5F9022000F004FAC8231A46F4
:10E2C00000210846FEF728FF00210846FEF7D0FE91
:10E2D000322000F0E5F9002C09D1002505E01549B0
:10E2E000485D00F0EFF9681CC5B21E2DF7DB012C6C
:10E2F00009D1002505E01049485D00F0E3F9681CEC
:10E30000C5B21E2DF7DB022C12D1002505E00B490A
:10E31000485D00F0D7F9681CC5B21E2DF7DB22203E
:10E3200000F0BEF9C02000F0CDF9202000F0B8F9CF
:10E3300070BD000046A4020082A4020064A4020092
:10E3400010B50321062005F033FE0321002005F05F
:10E350002FFE0321012005F02BFE0321022005F0F2
:10E3600027FE10BD10B5002005F055FE062005F073
:10E3700052FE012005F04FFE0121022005F018FE9B
:10E3800010BD0000C206D20E01219140014A116069
:10E390007047000080E200E0C206D20E01219140E9
:10E3A000014A11607047000000E100E0C206D20E91
:10E3B00001219140014A11607047000000E200E035
:10E3C00010B5002819DA1A4A03071B0F083B9B08EF
:10E3D0009B00D2588307DC0EFF23A3409A438B0790
:10E3E0001B0E8407E40EA3401A43114B0407240FAD
:10E3F000083CA408A4001A5118E00E4A03231B028B
:10E40000D21883089B00D2588307DC0EFF23A34059
:10E410009A438B071B0E8407E40EA3401A43054B57
:10E42000032424021B198408A4001A5110BD000003
:10E430001CED00E000E100E010B5002819DA1A4AEE
:10E4400003071B0F083B9B089B00D2588307DC0E79
:10E45000FF23A3409A438B071B0E8407E40EA340BF
:10E460001A43114B0407240F083CA408A4001A51B6
:10E4700018E00E4A03231B02D21883089B00D258CF
:10E480008307DC0EFF23A3409A438B071B0E8407F0
:10E49000E40EA3401A43054B032424021B198408ED
:10E4A000A4001A5110BD00001CED00E000E100E0E6
:10E4B00010B50021014805F089FC10BD00B00040F6
:10E4C00010B50020074908600021064841608160BE
:10E4D000C1600020034940390860486007F02EFB06
:10E4E00010BD00004011014010B50221002005F0D0
:10E4F000F3FDC82000F0E4F90221002005F0C6FD7C
:10E50000C82000F0DDF90221002005F0E5FDC8205B
:10E5100000F0D6F910BD10B507F024FA10BD0000C8
:10E5200070B50B48006800280ED009480068804785
:10E53000044600BF2546002D04D000BF284600F049
:10E5400045FD00BF00BF01E004F01EFD70BD0000EE
:10E550005020002070B592B0002646480078464909
:10E560000978884200D0012643480078400043499A
:10E57000085A43490988884200D0012600200AE051
:10E580004100404A515A42003F4B9A5A914200D0B2
:10E590000126411CC8B28028F2DB00200AE081007D
:10E5A0003A4A515882003A4B9A58914200D001267B
:10E5B000411CC8B21028F2DB36480078002800D091
:10E5C0000126002E53D000242B48017868460171A3
:10E5D0003048017868464171002504201DE0A900FB
:10E5E0002A4A5158090E01AA1154A900274A515824
:10E5F00009020A0E01AB411C5A54A900234A515A80
:10E6000009040A0E811C5A54A900204A525CC11CFC
:10E610005A54691CCDB2011DC8B24428DFDB00206A
:10E6200000F0B9F94422214601A800F059FAFF345C
:10E630000134FF2201322146104800F051FAFF3424
:10E640000134FF22013221460F4800F049FAFF341D
:10E650000134FF22013221460F4800F041FAFF3415
:10E660000134402221460D4800F03AFA00BF12B0B2
:10E6700070BD0000241F0020221F00202023002046
:10E68000261F0020A0260020202400202025002076
:10E69000A0270020231F00206025002060260020E6
:10E6A00010B504460121002005F0F0FC40210020B7
:10E6B00005F0ECFC204600F0D3F84021002005F0E6
:10E6C0000BFD10BD10B504460121002005F004FD2E
:10E6D0004021002005F0DAFC204600F0C1F840217E
:10E6E000002005F0F9FC10BD10B50021052005F053
:10E6F0006CFC0021042005F068FC0021032005F0DB
:10E7000064FC10BD10B5052005F091FC042005F057
:10E710008EFC0321084605F058FC10BD70B520257D
:10E72000124EF56000221AE00478401C082312E023
:10E7300080252540002D03D010250C4EB56002E049
:10E7400010250A4EF56065062C0E2025074EB56093
:10E75000F5605D1EABB2002BEAD1551CAAB28A420D
:10E76000E2DB1025014EF56070BD00000005005091
:10E77000FFB5164601990098FFF7D0FF00241EE070
:10E7800020201249C8601020C860002712E06806E7
:10E79000050E00200D4910310A5C11460820014089
:10E7A000082901D101200543202008498860C8605C
:10E7B000781C87B2082FEADB3555601C84B20398B9
:10E7C0008442DDDB10200149C860FFBD0005005018
:10E7D00010B5024620230D4CE360CB04190C002A2F
:10E7E00002D01023A36002E01023084CE360002055
:10E7F00005E02023054CA360E360431C98B28842E7
:10E80000F7DB1023014CE36010BD00000005005051
:10E8100070B52025114EF560002219E0044608234A
:10E8200012E080252540002D03D010250B4EB56049
:10E8300002E01025094EF56065062C0E2025074ED6
:10E84000B560F5605D1EABB2002BEAD1551CAAB2D3
:10E850008A42E3DB1025014EF56070BD00050050D3
:10E8600031B56C46012529462046FFF757FF38BDD4
:10E8700070B504460D460121002005F02DFC402115
:10E88000002005F003FC29462046FFF7A1FF4021A8
:10E89000002005F021FC70BD70B504460D46012135
:10E8A000002005F019FC4021002005F0EFFB29466F
:10E8B0002046FFF7ADFF4021002005F00DFC70BDA4
:10E8C00010B50346002404E07D20C00000F004F8E9
:10E8D000641C9C42F8D310BD002100E0491C814219
:10E8E000FCD3704710B504F0D7FB002805D01048C2
:10E8F00010494860C8131049886104F0B1FB002832
:10E9000002D001200D49886004F028FC00280ED0B8
:10E910000B480068012807D00A480949086000BF71
:10E92000074800680128FBD1C0200549486110BD97
:10E93000DFFF07C000050040006C004000060040FB
:10E9400000EC064075930000F8B504460D46200221
:10E95000001B4619FF2155313046FCF7E7FB0746FF
:10E96000243739B2684641800021C94301700098BC
:10E97000F8BD10B507F0D0F910BD7CB5092503240A
:10E98000002000902346024601460190284605F0EB
:10E99000D6FA00BF7CBD38B5044607F0AFFB00F0E7
:10E9A00094F8002813D02021684601702002010E3F
:10E9B00068464170210AF0200140684681700021BC
:10E9C000C17007F09BFB0421684600F06AF838BD6F
:10E9D0001CB5092400200090034601221146019035
:10E9E000204605F0ACFA00BF00F002F81CBD0000A4
:10E9F00008B504A0006800900221684600F051F8B4
:10EA000008BD000066990000F8B505460C4616469C
:10EA10000321684601702002010E684641702004FF
:10EA2000010E68468170C470042707F067FB02215D
:10EA3000012005F037FB33462A4639466846FFF782
:10EA400097FE0221012005F053FBF8BDF1B502212C
:10EA5000012005F027FB6C466D46012600273B464A
:10EA6000224631462846FFF783FE0221012005F0A9
:10EA70003FFBF8BDF1B582B002AC01AD0126012724
:10EA80000221012005F00EFB3B462A463146204676
:10EA9000FFF76EFE0221012005F02AFB684600798F
:10EAA000FEBDF8B504460D460221012005F0FAFA34
:10EAB000264600273B46324629462046FFF758FEA9
:10EAC0000221012005F014FBF8BD10B50620FFF768
:10EAD000BDFF0520FFF7CEFF02210840401010BD0A
:10EAE000F0B585B005460C46164604270020029076
:10EAF00003A80190009007F001FBFFF7E6FF002854
:10EB00001FD00221684601732002010E684641733E
:10EB10002004010E68468173C4730221012005F0B0
:10EB2000C1FA394668460DC8FFF722FE3746009500
:10EB3000394668460DC8FFF71BFE0221012005F08B
:10EB4000D7FA05B0F0BD000010B5002404E00120A4
:10EB5000FFF7B6FE601C84B200200B490A5C114628
:10EB60000420014088087D21C9008C4201DA01217E
:10EB700000E0002108400028E9D10448844201DD7A
:10EB8000002010BD0120FCE710050050E703000045
:10EB900030B47446641E2578641CAB4204D3635DB4
:10EBA0005B00E31830BC18471D46F8E702E008C8D0
:10EBB000121F08C1002AFAD170477047002001E0F7
:10EBC00001C1121F002AFBD17047F7B582B004467D
:10EBD00016460025378800203080606B00280ED054
:10EBE000616B08783B463246039906F007FA054602
:10EBF00000BF002D02D0284605B0F0BD00BF206B3D
:10EC000000280CD03B463246206B039907F012F8DF
:10EC1000054600BF002D01D02846EDE700BF2E209D
:10EC2000005D00280DD02E21085D3B463246039939
:10EC300004F0F6FA054600BF002D01D02846DBE7B8
:10EC400000BF2D20005D00280BD03A4631460398C6
:10EC500001F090F9054600BF002D01D02846CBE712
:10EC600000BFA07800280BD03A463146039800F048
:10EC7000BDFA054600BF002D01D02846BCE700BF05
:10EC8000E07800280DD0E17848B23B46324603993F
:10EC900003F078FD054600BF002D01D02846ABE704
:10ECA00000BF606800280ED00020616808563B460F
:10ECB0003246039907F014F8054600BF002D01D035
:10ECC000284699E700BF208900280FDD01970096AC
:10ECD0000622022120460830039B07F079F90546F9
:10ECE00000BF002D01D0284686E700BF208A0028FB
:10ECF0000FDD019700960722032120461030039B69
:10ED000007F066F9054600BF002D01D0284673E7DD
:10ED100000BF208B00280FDD0197009615221421DB
:10ED200020461830039B07F053F9054600BF002D1D
:10ED300001D0284660E700BF206A00280CD03B467F
:10ED40003246206A039902F023FC054600BF002DDD
:10ED500001D0284650E700BF606A00280CD03B462F
:10ED60003246606A039904F02FFC054600BF002D6F
:10ED700001D0284640E700BF2C20005D00280CDDB4
:10ED80003B4632462046039906F053F9054600BF3C
:10ED9000002D01D028462FE700BF207800280CD096
:10EDA0003B4632462046039904F094FD054600BFD9
:10EDB000002D01D028461FE700BF28461CE701466A
:10EDC000C87804221040002801D107207047002095
:10EDD000FCE710B501220221002001F071FD04467C
:10EDE00000BF002C03D0072C01D0204610BD00BF6F
:10EDF00007220221012001F063FD044600BF002C20
:10EE000003D0072C01D02046F0E700BF0A220021E2
:10EE1000084601F055FD044600BF002C03D0072C26
:10EE200001D02046E2E700BF0020DFE730B599B00F
:10EE300038210BA8FCF7DEF9022108A80173012193
:10EE400081730621C173032168468187104910919F
:10EE5000242102A8FCF7CEF901216846017528207B
:10EE60000690B420079000200A4B02AA01460090A9
:10EE70000BA800F0BFFB044600BF2546002D04D0C0
:10EE800000BF284600F0A2F800BF00BF19B030BD97
:10EE9000101F002005420200014600BF064A5068CC
:10EEA0000122D2058243044B9A600122D20502401E
:10EEB000DA6000BF704700000005005010B5002464
:10EEC00007E0E100064A1268505C012104F0A4FD4D
:10EED000641C044800788442F3D3002010BD000075
:10EEE000182000201C200020FEB506460C461746C0
:10EEF000052F01D20720FEBD04F0A4FE002808D192
:10EF000004F078FE054600BF002D01D02846F2E748
:10EF100000BF1748066017480470174807600020B4
:10EF2000164908601649086017E0E0008019019052
:10EF300014480068009001988078694648700199EB
:10EF40000878114A694604F0CBFD054600BF002D44
:10EF500001D02846CFE700BF00BF2046611ECCB2DB
:10EF60000028E2D1094A0021094800F075F8C2E7FB
:10EF7000182000201C200020202000202420002019
:10EF800028200020B4590300992E0200ED18020039
:10EF9000B059030000BF00BF00BF00BF00BFBFF3F8
:10EFA0004F8F00BF00BF00BF06480749C86000BFC1
:10EFB00000BF00BFBFF34F8F00BF00BF00BF00BF47
:10EFC00000BFFDE70400FA0500ED00E00EB50446C1
:10EFD000002000900190029002946A4600210148AE
:10EFE000FFF7D8FF01400000F8B504460D4616466D
:10EFF00003480768324629462046B847F8BD000056
:10F000005C290020F8B505460C4627780C21A0683D
:10F01000484306490E580648006800902A4639467B
:10F02000204608302369B047F8BD0000FC2B0020C3
:10F030001020002010B504460648007814225043E2
:10F04000044A121D81182046FFF7DCFF042006F059
:10F0500071F910BD302B002010B503460C4600BFDF
:10F060000D480068002801D1082010BD00BF002A0B
:10F0700001D10720F9E7002B01D10720F5E7186837
:10F08000007C002801D00820EFE7196800200874F0
:10F090004C744A6100BFE8E730200020FFB581B022
:10F0A0000E4614461F4620468107890F002901D1CC
:10F0B000012100E00021002902D1072005B0F0BDA8
:10F0C000002C04D100201C4908600720F6E705F059
:10F0D00075FE1A4807600320194908701648046035
:10F0E000183400250CE0E900134A12688818002142
:10F0F0000170417086704460182171430C196D1CB9
:10F10000032DF0DB00200F4908600F4908700F49FC
:10F1100008701420FFF736F903211420FFF78CF94B
:10F120001420FFF739F9019805F01EFE05F016FED0
:10F13000074908600020C1E7302000204820002057
:10F140002C200020342000204420002045200020D6
:10F1500038200020FEB504460D461746264600BF5F
:10F1600012480068002801D10820FEBD00BF002C15
:10F1700001D10820F9E7052D01D20720F5E77069D4
:10F18000002801D10820F0E7707C012801D1284631
:10F1900000E00020029006F0F1FE009701902A4660
:10F1A0003146029B06F07EFCDFE7000030200020A5
:10F1B00070B50446254600BF0B480068002801D101
:10F1C000082070BD00BF002C02D06869002801D162
:10F1D0000820F6E70020287406F0D0FE06462946EF
:10F1E00006F08CFCEDE7000030200020F8B5054665
:10F1F0000C4617462088001DB84201D90C20F8BDE6
:10F20000684679DF064600BF002E01D03046F6E79B
:10F2100000BF0320218868542088401C20801920CA
:10F22000218868542088401C208020884119684625
:10F23000008806F03DFE2188401820800020DEE78F
:10F2400070B500220121C90307480068FFF782FF5B
:10F25000044600BF2546002D04D000BF2846FFF716
:10F26000B5FE00BF00BF70BD40610200F0B591B0B7
:10F2700004460D46207D002819D00020099000BFCB
:10F2800008A8007901090901491C08A80171007941
:10F29000F0218843103008A9087100BF697B08A8D5
:10F2A0004171807906218843801C08A988711C213E
:10F2B0000AA8FBF79FFF08A8007A02218843811C57
:10F2C00008A80172007A10218843217D002901D00D
:10F2D000012100E00021090110221140084308A982
:10F2E000087200200B900D900E90207D002801D018
:10F2F00009A800E000200F900020109000BF01211D
:10F30000684681734949818100BF00200290A97B32
:10F3100068460172E97B4172807A06218843811C2C
:10F3200068468172807A0821884301466846817266
:10F33000807A10218843014668468172807A4108AC
:10F34000490068468172297B0191142104A8FBF7CA
:10F3500051FF03A8049002A805900121684601838B
:10F36000002141830121818301A80890A088A31D69
:10F3700004AA0AA9A2DF0646002E02D0304611B028
:10F38000F0BDA86800284DD000BF012168468173F8
:10F390002749818100BF00200290287C69460872BD
:10F3A00000BF6846407A0109090168464172407A07
:10F3B000F02188436946487200BF6846807A06217A
:10F3C0008843811C68468172807A082188430146FF
:10F3D00068468172807A10218843014668468172AE
:10F3E000807A4108490068468172A96800F006FFEA
:10F3F0000746142104A8FBF7FDFE03A8049002A809
:10F4000005906846078300214183018B8183089022
:10F41000E08822460E3204A9A3DF0646002E03D060
:10F420003046ACE70020E0810020A8E7192A000060
:10F430000829000030B593B00546002403E00FA86A
:10F440000455601CC4B20E2CF9DB08AA517F107F52
:10F450005322FEF7F5FC0E902F486A46118FC180AB
:10F46000518F018108AAD17F907F0222FEF7E8FC2C
:10F470000E9029486A46118F4181518F818110AACF
:10F4800051781078FF226232FEF7DAFC0E902248A3
:10F490006A46118FC181518F018201201E49087077
:10F4A00010AAD1789078FFF74FFA0E901A486A4662
:10F4B000118F4183518F81830120174908700820E3
:10F4C00008840120087188704870C870032088770C
:10F4D0001E21114841750821017510480E494882C6
:10F4E00011210D4881752D21C1750A210176552004
:10F4F00000F016F81222084910316846FBF761FE49
:10F500002222054906A8FBF75CFE06A80FC800F0FA
:10F51000FBFE13B030BD00009C200020E30700007C
:10F5200070B5054629460A4800F072FB0446002CD7
:10F530000CD0082C0AD00748844207D006488442E1
:10F5400004D000BF2046FFF741FD00BF70BD0000A2
:10F55000682000200430000001340000F3B593B0AF
:10F560000D461F21129111911398002818D013985D
:10F57000FFF725FC044600BF002C02D0204615B042
:10F58000F0BD00BF12AA09A91398FFF71EFB04469D
:10F5900000BF002C01D02046F1E700BF09AE02E019
:10F5A000002600201290002D17D0284605F04CFFB1
:10F5B000044600BF002C01D02046E0E700BF11AA9E
:10F5C00001A92846FFF701FB044600BF002C01D02B
:10F5D0002046D4E700BF01AF02E0002700201190D1
:10F5E00010A88088C3B210A80089C1B23A4630463C
:10F5F00072DFC4E7F8B504460F4615461E4600BF45
:10F60000002C01D10E20F8BD00BF00BF002D01D19C
:10F610000E20F8E700BF00204849087048480660FF
:10F62000484906980860242229464748FBF7C9FD47
:10F6300000F050F94548464908604648886038213E
:10F640004548FBF7D7FD207843490870A0788870BB
:10F65000E078C87060784870626920694A61086122
:10F660000846E268A168C2608160E269A169C2617E
:10F670008161606A00281BD03848374948623849A0
:10F680008160606A00883449496A0880606A8088BD
:10F690003149496A8880002005E0616A8968095C0F
:10F6A0002F4A1154401C2C49496A89888142F4D858
:10F6B000A06A002824D02B492B4881602649886203
:10F6C00028492548806A8160A06A80882249896A21
:10F6D0008880A06A00882049896A0880002005E0A7
:10F6E000A16A8968095C1F4A1154401C1A49896A39
:10F6F00089888142F4D82C20015D1748203001739D
:10F70000206A00280BD0194813490862206A4088F3
:10F71000096A4880206A00880F49096A0880606881
:10F72000002804D012480C49486060684860394697
:10F730000948FFF713FF0090009864E7C41F0020FA
:10F74000BC1F0020C01F0020B8290020EC29002089
:10F75000DC2900200C2A0020802900202C2A0020EF
:10F76000382A0020642A0020582A0020C81F0020C0
:10F77000CC1F002070B504462088102804D0112822
:10F7800009D019286CD11DE0207D012802D1A08864
:10F790003549088065E0002034490870A088324966
:10F7A000098888420DD1012000F0CEF80546002DD1
:10F7B00007D02F480068002803D028462C49096844
:10F7C00088474EE0A079002849D12A4800780128CE
:10F7D00006D0022813D0032820D004283DD12FE0E2
:10F7E000022000F0B1F80546002D07D0204800683F
:10F7F000002803D028461E49096888472EE00320C8
:10F8000000F0A2F80546002D07D01948006800282E
:10F8100003D028461649096888471FE00320164987
:10F820000870042000F090F80546002D07D010481D
:10F830000068002803D028460D49096888470DE074
:10F8400000200D4908700D480068002804D00846C3
:10F8500000780A490968884700E000BF00BF00E05F
:10F8600000BF00BF70BD0000CE1F0020C51F0020DC
:10F87000C01F0020C41F0020B81F0020BC1F002094
:10F8800070B504460025022C02D0032C18D100E0EC
:10F8900000BF0D480078002811D000200A490870E8
:10F8A0000A48007800F050F80546002D07D00848B7
:10F8B0000068002803D0284605490968884700E009
:10F8C00000BF00BF70BD0000B01F0020C41F00209B
:10F8D000C01F002010B507210148FBF78BFC10BDAD
:10F8E000B11F002010B514480078012821D1134819
:10F8F000007800281DD112480078002807D074DF56
:10F90000044600BF002C01D0204610BD00BF0120DE
:10F910000A4908700A48007800F016F80446002CDE
:10F9200007D008480068002803D020460549096828
:10F9300088470020E9E70000B8290020C51F002003
:10F94000C41F0020C01F002030B587B00546A54861
:10F95000057000200090684604F092FE0446082CD2
:10F9600002D10020009004E0002C02D0204607B015
:10F9700030BD0098002804D001209B490870002069
:10F98000F5E7FFF7A7FF99484078002803D095488E
:10F990000078012807D095488078002812D0914837
:10F9A000007802280ED192480068002807D0012074
:10F9B0009049087008208E490968884702E00020B5
:10F9C0008C4908708748007801280BD18748407817
:10F9D000002804D0884804F081FD002802D10220CC
:10F9E000804908707F48007802280BD17F488078D2
:10F9F000002804D0804804F071FD002802D10320C3
:10FA0000784908707948007B002806D1754800784D
:10FA1000032802D10420734908707448007E00282E
:10FA200008D170480078042804D100206D4908707E
:10FA3000724908706E480068002817D0694800783D
:10FA4000032803D06748007804280FD1674800785E
:10FA500000280BD06A480078002807D101206949A6
:10FA60000870072062490968884702E0002065495C
:10FA70000870182101A8FBF7BDFB00216846017141
:10FA800000200290684601730020049055480078D9
:10FA9000012806D0022811D0032823D004287CD1C5
:10FAA00052E05548401E0290012168460171002134
:10FAB000C182818201205149087079E04E48401E80
:10FAC00002900121684601714848008981B2684668
:10FAD000C1824648808881B26846818202204749B7
:10FAE000087065E04148808A81B26846C1823F481B
:10FAF000008A81B268468182434806F00FFB0028E5
:10FB00001ED03A48007800281AD03D4800780028D6
:10FB100016D10220694608733B48049004203B49F3
:10FB2000C87000213948FFF719FD044600BF002CBA
:10FB300001D020461BE700BF05203049087002E0D5
:10FB400003202E49087033E02848808B81B2684634
:10FB500081822648008C81B26846C1822A4806F01C
:10FB6000DDFA00281FD02148007800281BD0244847
:10FB70000078002817D102206946087322480490B3
:10FB800004202249C87000212048FFF7E7FC044602
:10FB900000BF002C02D02046E9E608E000BF0620A6
:10FBA0001649087002E004201449087000E000BF04
:10FBB00000BF0C480078002808D001A873DF044675
:10FBC00000BF002C01D02046D1E600BF08480068E5
:10FBD000002804D0094800780549096888470020B2
:10FBE000C5E60000C41F0020B01F0020B829002077
:10FBF000BC1F0020C71F0020B21F0020B81F00201C
:10FC0000C51F0020C61F0020DC29002080290020FD
:10FC100033B587B00446002C02D10E2009B030BDA8
:10FC20000025207C08A90978884233D0002005905F
:10FC300006900121684681820021C18208A80690B1
:10FC4000E188608A05AAA4DF0546002D03D108A833
:10FC50000078207401E02846E0E7608A0E49884277
:10FC600017D0207D002814D000200190029003902E
:10FC70000490E1886846818001218171C18A0181F7
:10FC800005A8039006980490608A01A9A6DF05469E
:10FC900000E008252846C1E7FFFF0000F8B504464C
:10FCA0000D46002C01D0002D01D10E20F8BD286892
:10FCB00020600020C043608228792075FF202074D6
:10FCC00000BF0121684681700849018000BF221DE4
:10FCD00069460120A0DF0646002E01D03046E5E748
:10FCE00029462046FFF7C2FAE0E700000F1800009F
:10FCF00070B505460C46002D01D0002C00D170BD1A
:10FD00002088102804D0112807D050280FD109E0EE
:10FD10002146284604F020FB0AE02146284604F04C
:10FD20003FFB05E02146284604F074FB00E000BFDD
:10FD300000BF00BFE3E70000F8B504460E46306898
:10FD400020600020C043E0827089208300BF012131
:10FD5000684681700F49018000BF221D694601205D
:10FD6000A0DF0546002D01D02846F8BD31462046CB
:10FD700000F082FB0546002D01D02846F5E731460C
:10FD8000204600F021FB0546002D01D02846ECE777
:10FD90000020EAE710180000FEB504460D460020DA
:10FDA000009001900221684601800021418002A854
:10FDB00001906189E08A6A46A5DF0646002E03D1DC
:10FDC00002A800F010FA28703046FEBDF0B58BB0E6
:10FDD00004460F46E08A1549884222D006AA3946D1
:10FDE000204600F0C5FB06460596002001900290D3
:10FDF00003900490E188684681800221817100218E
:10FE0000018105A8039006A80490E08A01A9A6DF55
:10FE10000546002D04D16846808AB04200D00C25EA
:10FE200000E0082528460BB0F0BD0000FFFF0000F1
:10FE300070B505460C462088102806D0112809D038
:10FE400050280CD0532814D10EE02146284604F047
:10FE500086FA0FE02146284604F0A6FA0AE0214679
:10FE6000284604F0FFFA05E02146284604F0C2FACD
:10FE700000E000BF00BF70BD70B505461C222946DA
:10FE80001448FBF79EF900201349087028680028E1
:10FE90000BD0082211482968FBF793F90F487ADF45
:10FEA0000446002C08D0204670BD0C487BDF044679
:10FEB000002C01D02046F7E70020C0430849088005
:10FEC000002008490870084A00210848FFF7C4F8D4
:10FED000EAE70000842A0020E41F0020D01F002051
:10FEE000DA1F0020D81F0020E15E02007C590300C9
:10FEF00010B504462088102806D0112808D01228F2
:10FF00000ED0502810D107E0204604F02BFA0CE068
:10FF1000204604F04DFA08E0204604F0B1FA04E06F
:10FF2000204604F00DFA00E000BF00BF10BD70B520
:10FF300004460D462088294605F0A8FF0646A2780B
:10FF40003046711CCEB22A54E2783046711CCEB2D3
:10FF50002A5422793046711CCEB22A546279304636
:10FF6000711CCEB22A54A2793046711CCEB22A54EA
:10FF7000304670BDFEB505460C4617462088093050
:10FF8000B84201D90C20FEBD684671DF064600BFAD
:10FF9000002E01D03046F6E700BF082021886854C3
:10FFA0002088401C20801B20218868542088401C09
:10FFB000208021884819062200A90131FBF701F9A8
:10FFC0002088801D208068460078002802D1218882
:10FFD000685402E00120218868542088401C208059
:10FFE0000020D0E77FB5044600BF01216846817339
:10FFF0005D49818100BF5D4A03A90120A0DF05465C
:020000040002F8
:10000000002D02D0284604B070BD208800280DDDE8
:1000100057480090228823463C335648616801F0D7
:100020006BF80546002D01D02846ECE72089002812
:100030000EDD51480090228923463C334D48401F35
:10004000E16801F059F80546002D01D02846DAE7AD
:10005000208A00280EDD49480090228A23463C333E
:100060004448001F616901F047F80546002D01D0A2
:100070002846C8E7208B00280EDD41480090228BDF
:1000800023463C333B48801EE16901F035F80546C4
:10009000002D01D02846B6E7208C00280EDD394817
:1000A0000090228C23463C333248C01E616A01F026
:1000B00023F80546002D01D02846A4E7208D00280E
:1000C0000EDD31480090228D23463C332948401EE6
:1000D000E16A01F011F80546002D01D0284692E7AB
:1000E000206B002813D001A8216B05F08EFB274858
:1000F00023463C33082201A900901E48801F00F0CF
:10010000FBFF0546002D01D028467CE700BF606B51
:1001100000280FD01E480090606B027923463C33C4
:1001200001681448401C00F0E7FF0546002D01D08F
:10013000284668E7A06B002813D001A8A16B04F043
:1001400035FA144823463C33072201A90090094898
:10015000273000F0D1FF0546002D01D0284652E798
:1001600000BF00204FE700000A180000501F0020C9
:10017000521F0020292A00005A1F0020621F002061
:100180006A1F0020721F00207A1F0020821F00209B
:100190008A1F0020921F002010B5044621460B48FC
:1001A000FFF746FE21460A48FFF7A2FD2046FFF76B
:1001B0009FFE204601F04AFD204600F071FA2046DD
:1001C00004F03CF82046FFF7D5FA10BD802000204F
:1001D0006820002070B504460D462846FBF715F848
:1001E0002080656070BD014600BF08784B781B0217
:1001F000184302460220104040087047F8B50546F3
:100200000E46002432782146641C6A5472782146D6
:10021000641C6A5400BF022C01D1012000E00020C0
:100220000746002F03D100BFFEF7D0FE00BF00BF7E
:100230002046F8BD70B586B000BF002348222E4985
:10024000082005F0BFF8054600BF2E46002E04D05A
:1002500000BF3046FEF7BAFE00BF00BF00BF01AAD4
:100260000121002005F08CF8044600BF2546002D32
:1002700004D000BF2846FEF7A9FE00BF00BF00BFA4
:100280001E4E304604F0ACFE044600BF2546002D4D
:1002900004D000BF2846FEF799FE00BF00BF00BF94
:1002A00001A805F05FF8044600BF2546002D04D0E4
:1002B00000BF2846FEF78AFE00BF00BF104805F0C9
:1002C00043F8044600BF2546002D04D000BF284651
:1002D000FEF77CFE00BF00BF0A4805F0A7F8044601
:1002E00000BF2546002D04D000BF2846FEF76EFE55
:1002F00000BF00BF06B070BDA8220020001E002075
:1003000099010200F95702000FB438B56946184840
:10031000FFF742FD044600BF2546002D04D000BF74
:100320002846FEF753FE00BF00BF6846007800284D
:1003300019D010480078002815D104A90C48FFF7FF
:1003400045FD0446002C02D0082C05D103E0012015
:100350000849087006E005E000BF2046FEF736FEBB
:1003600000BF00BF00BF38BC08BC04B01847000085
:10037000802000200E1F00207CB50446A1786A462C
:100380000D4804F095F90546002D13D161781C2223
:1003900051430A4A88181C231A46694604F0C4FAD5
:1003A0000748807A800007490A58214668469047E6
:1003B000054600BF7CBD00009C1F002010290020C6
:1003C0005C2900205859030070B590B005460C46D2
:1003D0001C2109A8FAF70EFF08A908790221884311
:1003E000801C08A9087100200A900C900D900E90B6
:1003F0000F9000BF0121684681731E49818100BFB3
:10040000002002906846807A06218843811C684655
:100410008172E1790172217A4172807A08218843E0
:10042000014668468172807A1021884301466846F9
:100430008172807A4108490068468172142104A8BB
:10044000FAF7D8FE608901A905F020FD064603A849
:10045000049002A8059068460683002141838683A4
:1004600001A80890A8882B460E3304AA09A9A2DF88
:1004700010B070BD492A000030B59DB005460C464D
:100480000020159000BF10A8007D01090901491C3A
:1004900010A80175007DF0218843103010A908755F
:1004A00000BF10A8807D06218843811C10A881759B
:1004B000217941751C2116A8FAF79CFE10A8007E30
:1004C00020218843203010A9087600201790199029
:1004D0001A9015A81B9000201C9000BF012108A8AD
:1004E000817722496846818700BF00200E9008A8C6
:1004F000807E06218843811C08A881766179017677
:10050000A1794176807E08218843014608A881763A
:10051000807E10218843014608A88176807E4108AC
:100520004900491C08A88176142110A8FAF762FE38
:10053000242105A8FAF75EFE0FA810900EA81190CE
:100540006A4605A9284600F013F8014610A8018163
:10055000002141811421818168461490A888AB1D37
:1005600010AA16A9A2DF1DB030BD0000352A000078
:10057000F8B50C461646002701252078002801D042
:10058000012007430620205600030F2109030840DD
:1005900021890905090D084300907119009805F09B
:1005A00075FC4019C5B20A20205600030F2109032B
:1005B0000840A1890905090D0843009071190098A8
:1005C00005F064FC4019C5B20E20205600030F212F
:1005D00009030840218A0905090D08430090711993
:1005E000009805F053FC4019C5B26078002808D087
:1005F00002200743711920461230FFF798FC40197A
:10060000C5B2A078002812D0042007431A20205633
:1006100000030F2109030840A18B0905090D0843B8
:1006200000907119009805F031FC4019C5B2E078CE
:10063000002806D008200743A27F2846691CCDB2B7
:1006400032542079002807D0102007437119208CDC
:1006500005F01CFC4019C5B237702846F8BD0000F3
:1006600070B505460C4600260B480560002C09D0E5
:10067000204604F0F1FE064600BF002E01D03046B1
:1006800070BD00BF05480068002802D1FEF7A1FB3D
:1006900006463046F4E70000441F0020481F0020B3
:1006A00070B505462888102802D0112832D118E0EC
:1006B0001A48006800280ED101F01EF8044600BF59
:1006C000002C07D016480068002803D020461449A3
:1006D0000968884700BF11480068401C0F4908603E
:1006E00019E00E480068401E0C4908600846006882
:1006F00000280ED1FEF76DFB044600BF002C07D08A
:1007000007480068002803D0204605490968884743
:1007100000BF00E000BF00BF70BD0000481F002008
:10072000441F002010B5032000F028FC044600BF41
:10073000002C03D0062C01D0204610BD00BF0020A5
:10074000FBE70000F3B581B006460025002400E079
:10075000641C042C04D2A00029490858B042F7D1E7
:10076000042C42D20298002825D0012802D0022869
:100770003AD133E06000201822490D5C6000201857
:100780004018407800280ED01F4800680A225043C5
:1007900001461E4A1E480068FEF7DCFC0746002F93
:1007A00001D11A4806706000201816494018807858
:1007B0001849085518E016480068FEF7F9FC154876
:1007C000005D610061180F4A89188978884204D158
:1007D0006000201811464018857805E06000201858
:1007E00008494018457800BF00BF002D07D00A48CF
:1007F0000068002803D02846074909688847FEBDDD
:1008000018590300202800202C1F00203C1F002026
:10081000145903003D1F0020381F002010B5024668
:10082000042A0FD2094B1B69D8439300084CE45C9F
:100830000123A3400340002B01D0012300E000234B
:100840000B7001E000200870002010BD0005005072
:100850001859030070B50546042D09D0072D19D08D
:100860000A2D02D00D2D26D124E004F039FD23E01D
:1008700013211248008876DF0446082C09D000BFF7
:100880002646002E04D000BF3046FEF79FFB00BF77
:1008900000BF11E0FFF726F80446082C09D000BF7E
:1008A0002646002E04D000BF3046FEF78FFB00BF67
:1008B00000BF01E000E000BF00BF70BD0C1F0020C2
:1008C00030B503460020042B24D2012A07D1012988
:1008D00003D11C460D34E4B200E000242246002976
:1008E0000FD0012902D0022911D104E05C001C19AB
:1008F000094D2A550DE05C001C19074D6419627002
:1009000007E05C001C19044D6419A27001E0072087
:1009100000BF00E0072030BD2028002070B504464D
:10092000002506480078C007C00F002803D02046E5
:1009300000F070F80546284670BD0000301F00200A
:10094000F7B505460E46002427480660274805608F
:1009500027490298086002202840002822D000275A
:1009600006E0012211463846FFF7AAFF04467F1C25
:10097000042F01D2002CF4D0002C05D172080421E0
:100980001C48FEF7B1FA0446002C02D1FEF796FA95
:100990000446002C05D1184A00211848FEF75CFBDC
:1009A000044600BFE807C00F00280AD000BF0F2090
:1009B0004005134988600020C86000BF0F20400533
:1009C0008861002C05D10F4A00210F48FEF744FB37
:1009D0000446002C05D10D4A01210D48FEF73CFBD1
:1009E00004462046FEBD00002C1F0020301F0020C2
:1009F000381F002028590300D90F020014590300A2
:100A0000000500508D3202000C59030099EE0100E0
:100A100010590300F8B50446002500262300FEF710
:100A2000B7F8180D1E1F68B1F9F8F7F6F5F4F3F2F0
:100A3000F1F0EFEEEDECEBEAE9E8E7E600BFF748AE
:100A400001680F20400588430F2149050840F449FB
:100A500088600020C86000BFF248047080E200BFD8
:100A600000BFEE4801680720800588430F21490533
:100A70000840EB4988600020C86000BF0846406815
:100A80000F214905484001214905084000280FD0A1
:100A900000BF0846E24988600020C86000BF022C01
:100AA00002D1E120C00001E07D20400106460EE0B9
:100AB00000BF01204005DA49C8600020886000BFFF
:100AC000022C01D1C82001E0FF2091300646D54814
